{
  "contractName": "Constructum",
  "abi": [
    {
      "inputs": [],
      "stateMutability": "nonpayable",
      "type": "constructor"
    },
    {
      "inputs": [
        {
          "internalType": "address",
          "name": "operator",
          "type": "address"
        }
      ],
      "name": "OperatorNotAllowed",
      "type": "error"
    },
    {
      "anonymous": false,
      "inputs": [
        {
          "indexed": true,
          "internalType": "address",
          "name": "owner",
          "type": "address"
        },
        {
          "indexed": true,
          "internalType": "address",
          "name": "approved",
          "type": "address"
        },
        {
          "indexed": true,
          "internalType": "uint256",
          "name": "tokenId",
          "type": "uint256"
        }
      ],
      "name": "Approval",
      "type": "event"
    },
    {
      "anonymous": false,
      "inputs": [
        {
          "indexed": true,
          "internalType": "address",
          "name": "owner",
          "type": "address"
        },
        {
          "indexed": true,
          "internalType": "address",
          "name": "operator",
          "type": "address"
        },
        {
          "indexed": false,
          "internalType": "bool",
          "name": "approved",
          "type": "bool"
        }
      ],
      "name": "ApprovalForAll",
      "type": "event"
    },
    {
      "anonymous": false,
      "inputs": [
        {
          "indexed": true,
          "internalType": "address",
          "name": "from",
          "type": "address"
        },
        {
          "indexed": true,
          "internalType": "address",
          "name": "to",
          "type": "address"
        },
        {
          "indexed": true,
          "internalType": "uint256",
          "name": "tokenId",
          "type": "uint256"
        }
      ],
      "name": "Transfer",
      "type": "event"
    },
    {
      "inputs": [],
      "name": "OPERATOR_FILTER_REGISTRY",
      "outputs": [
        {
          "internalType": "contract IOperatorFilterRegistry",
          "name": "",
          "type": "address"
        }
      ],
      "stateMutability": "view",
      "type": "function"
    },
    {
      "inputs": [
        {
          "internalType": "address",
          "name": "",
          "type": "address"
        }
      ],
      "name": "_isAdmin",
      "outputs": [
        {
          "internalType": "bool",
          "name": "",
          "type": "bool"
        }
      ],
      "stateMutability": "view",
      "type": "function"
    },
    {
      "inputs": [],
      "name": "_tokenId",
      "outputs": [
        {
          "internalType": "uint256",
          "name": "",
          "type": "uint256"
        }
      ],
      "stateMutability": "view",
      "type": "function"
    },
    {
      "inputs": [
        {
          "internalType": "address",
          "name": "owner",
          "type": "address"
        }
      ],
      "name": "balanceOf",
      "outputs": [
        {
          "internalType": "uint256",
          "name": "",
          "type": "uint256"
        }
      ],
      "stateMutability": "view",
      "type": "function"
    },
    {
      "inputs": [
        {
          "internalType": "uint256",
          "name": "tokenId",
          "type": "uint256"
        }
      ],
      "name": "getApproved",
      "outputs": [
        {
          "internalType": "address",
          "name": "",
          "type": "address"
        }
      ],
      "stateMutability": "view",
      "type": "function"
    },
    {
      "inputs": [
        {
          "internalType": "address",
          "name": "owner",
          "type": "address"
        },
        {
          "internalType": "address",
          "name": "operator",
          "type": "address"
        }
      ],
      "name": "isApprovedForAll",
      "outputs": [
        {
          "internalType": "bool",
          "name": "",
          "type": "bool"
        }
      ],
      "stateMutability": "view",
      "type": "function"
    },
    {
      "inputs": [],
      "name": "name",
      "outputs": [
        {
          "internalType": "string",
          "name": "",
          "type": "string"
        }
      ],
      "stateMutability": "view",
      "type": "function"
    },
    {
      "inputs": [
        {
          "internalType": "uint256",
          "name": "tokenId",
          "type": "uint256"
        }
      ],
      "name": "ownerOf",
      "outputs": [
        {
          "internalType": "address",
          "name": "",
          "type": "address"
        }
      ],
      "stateMutability": "view",
      "type": "function"
    },
    {
      "inputs": [],
      "name": "symbol",
      "outputs": [
        {
          "internalType": "string",
          "name": "",
          "type": "string"
        }
      ],
      "stateMutability": "view",
      "type": "function"
    },
    {
      "inputs": [
        {
          "internalType": "bytes4",
          "name": "interfaceId",
          "type": "bytes4"
        }
      ],
      "name": "supportsInterface",
      "outputs": [
        {
          "internalType": "bool",
          "name": "",
          "type": "bool"
        }
      ],
      "stateMutability": "view",
      "type": "function"
    },
    {
      "inputs": [
        {
          "internalType": "address",
          "name": "to",
          "type": "address"
        },
        {
          "internalType": "uint256",
          "name": "innerColor",
          "type": "uint256"
        },
        {
          "internalType": "uint256",
          "name": "outerColor",
          "type": "uint256"
        },
        {
          "internalType": "uint256",
          "name": "decoration",
          "type": "uint256"
        }
      ],
      "name": "mint",
      "outputs": [],
      "stateMutability": "nonpayable",
      "type": "function"
    },
    {
      "inputs": [
        {
          "internalType": "address",
          "name": "admin",
          "type": "address"
        }
      ],
      "name": "toggleAdmin",
      "outputs": [],
      "stateMutability": "nonpayable",
      "type": "function"
    },
    {
      "inputs": [
        {
          "internalType": "uint256",
          "name": "tokenId",
          "type": "uint256"
        }
      ],
      "name": "burn",
      "outputs": [],
      "stateMutability": "nonpayable",
      "type": "function"
    },
    {
      "inputs": [
        {
          "internalType": "string",
          "name": "uri",
          "type": "string"
        }
      ],
      "name": "setURI",
      "outputs": [],
      "stateMutability": "nonpayable",
      "type": "function"
    },
    {
      "inputs": [
        {
          "internalType": "uint256",
          "name": "tokenId",
          "type": "uint256"
        }
      ],
      "name": "tokenURI",
      "outputs": [
        {
          "internalType": "string",
          "name": "",
          "type": "string"
        }
      ],
      "stateMutability": "view",
      "type": "function"
    },
    {
      "inputs": [
        {
          "internalType": "address",
          "name": "operator",
          "type": "address"
        },
        {
          "internalType": "bool",
          "name": "approved",
          "type": "bool"
        }
      ],
      "name": "setApprovalForAll",
      "outputs": [],
      "stateMutability": "nonpayable",
      "type": "function"
    },
    {
      "inputs": [
        {
          "internalType": "address",
          "name": "operator",
          "type": "address"
        },
        {
          "internalType": "uint256",
          "name": "tokenId",
          "type": "uint256"
        }
      ],
      "name": "approve",
      "outputs": [],
      "stateMutability": "nonpayable",
      "type": "function"
    },
    {
      "inputs": [
        {
          "internalType": "address",
          "name": "from",
          "type": "address"
        },
        {
          "internalType": "address",
          "name": "to",
          "type": "address"
        },
        {
          "internalType": "uint256",
          "name": "tokenId",
          "type": "uint256"
        }
      ],
      "name": "transferFrom",
      "outputs": [],
      "stateMutability": "nonpayable",
      "type": "function"
    },
    {
      "inputs": [
        {
          "internalType": "address",
          "name": "from",
          "type": "address"
        },
        {
          "internalType": "address",
          "name": "to",
          "type": "address"
        },
        {
          "internalType": "uint256",
          "name": "tokenId",
          "type": "uint256"
        }
      ],
      "name": "safeTransferFrom",
      "outputs": [],
      "stateMutability": "nonpayable",
      "type": "function"
    },
    {
      "inputs": [
        {
          "internalType": "address",
          "name": "from",
          "type": "address"
        },
        {
          "internalType": "address",
          "name": "to",
          "type": "address"
        },
        {
          "internalType": "uint256",
          "name": "tokenId",
          "type": "uint256"
        },
        {
          "internalType": "bytes",
          "name": "data",
          "type": "bytes"
        }
      ],
      "name": "safeTransferFrom",
      "outputs": [],
      "stateMutability": "nonpayable",
      "type": "function"
    },
    {
      "inputs": [
        {
          "internalType": "address payable",
          "name": "_recipient",
          "type": "address"
        },
        {
          "internalType": "uint256",
          "name": "_royaltyPerCent",
          "type": "uint256"
        }
      ],
      "name": "setRoyalties",
      "outputs": [],
      "stateMutability": "nonpayable",
      "type": "function"
    },
    {
      "inputs": [
        {
          "internalType": "uint256",
          "name": "salePrice",
          "type": "uint256"
        }
      ],
      "name": "royaltyInfo",
      "outputs": [
        {
          "internalType": "address",
          "name": "",
          "type": "address"
        },
        {
          "internalType": "uint256",
          "name": "",
          "type": "uint256"
        }
      ],
      "stateMutability": "view",
      "type": "function"
    },
    {
      "inputs": [
        {
          "internalType": "address",
          "name": "recipient",
          "type": "address"
        }
      ],
      "name": "withdraw",
      "outputs": [],
      "stateMutability": "nonpayable",
      "type": "function"
    }
  ],
  "bytecode": "0x60806040523480156200001157600080fd5b50733cc6cdda760b79bafa08df41ecfa224f810dceb660016040518060400160405280600b81526020017f436f6e737472756374756d0000000000000000000000000000000000000000008152506040518060400160405280600b81526020017f436f6e737472756374756d0000000000000000000000000000000000000000008152508160009081620000a6919062000db9565b508060019081620000b8919062000db9565b50505060006daaeb6d7670e522a718067333cd4e73ffffffffffffffffffffffffffffffffffffffff163b1115620002b057801562000176576daaeb6d7670e522a718067333cd4e73ffffffffffffffffffffffffffffffffffffffff16637d3e3dbe30846040518363ffffffff1660e01b81526004016200013c92919062000ee5565b600060405180830381600087803b1580156200015757600080fd5b505af11580156200016c573d6000803e3d6000fd5b50505050620002af565b600073ffffffffffffffffffffffffffffffffffffffff168273ffffffffffffffffffffffffffffffffffffffff161462000230576daaeb6d7670e522a718067333cd4e73ffffffffffffffffffffffffffffffffffffffff1663a0af290330846040518363ffffffff1660e01b8152600401620001f692919062000ee5565b600060405180830381600087803b1580156200021157600080fd5b505af115801562000226573d6000803e3d6000fd5b50505050620002ae565b6daaeb6d7670e522a718067333cd4e73ffffffffffffffffffffffffffffffffffffffff16634420e486306040518263ffffffff1660e01b815260040162000279919062000f12565b600060405180830381600087803b1580156200029457600080fd5b505af1158015620002a9573d6000803e3d6000fd5b505050505b5b5b505060006008819055506040518061010001604052806040518060600160405280602481526020016200530c6024913981526020016040518060400160405280601281526020017f222c20226465736372697074696f6e223a22000000000000000000000000000081525081526020016040518060600160405280602a8152602001620052e2602a913981526020016040518060400160405280601081526020017f222c2022696d6167655f75726c223a220000000000000000000000000000000081525081526020016040518060400160405280601081526020017f222c2022616e696d6174696f6e223a220000000000000000000000000000000081525081526020016040518060400160405280601481526020017f222c2022616e696d6174696f6e5f75726c223a2200000000000000000000000081525081526020016040518060400160405280601181526020017f222c202261747472696275746573223a5b00000000000000000000000000000081525081526020016040518060400160405280600281526020017f5d7d00000000000000000000000000000000000000000000000000000000000081525081525060099060086200047692919062000a52565b506040518060400160405280600581526020017f426c61636b000000000000000000000000000000000000000000000000000000815250600c60008081526020019081526020016000209081620004ce919062000db9565b506040518060400160405280600581526020017f5768697465000000000000000000000000000000000000000000000000000000815250600c600060018152602001908152602001600020908162000527919062000db9565b506040518060400160405280600481526020017f426c756500000000000000000000000000000000000000000000000000000000815250600c600060028152602001908152602001600020908162000580919062000db9565b506040518060400160405280600581526020017f477265656e000000000000000000000000000000000000000000000000000000815250600c6000600381526020019081526020016000209081620005d9919062000db9565b506040518060400160405280600481526020017f50696e6b00000000000000000000000000000000000000000000000000000000815250600c600060048152602001908152602001600020908162000632919062000db9565b506040518060400160405280600281526020017f3664000000000000000000000000000000000000000000000000000000000000815250600d600080815260200190815260200160002090816200068a919062000db9565b506040518060400160405280600381526020017f3130640000000000000000000000000000000000000000000000000000000000815250600d6000600181526020019081526020016000209081620006e3919062000db9565b506040518060400160405280600381526020017f3130720000000000000000000000000000000000000000000000000000000000815250600d60006002815260200190815260200160002090816200073c919062000db9565b506040518060400160405280600381526020017f3135640000000000000000000000000000000000000000000000000000000000815250600d600060038152602001908152602001600020908162000795919062000db9565b506040518060400160405280600581526020017f446f6e7574000000000000000000000000000000000000000000000000000000815250600d6000600481526020019081526020016000209081620007ee919062000db9565b506040518060400160405280600781526020017f436972636c657300000000000000000000000000000000000000000000000000815250600e6000808152602001908152602001600020908162000846919062000db9565b506040518060400160405280600481526020017f466c6f7700000000000000000000000000000000000000000000000000000000815250600e60006001815260200190815260200160002090816200089f919062000db9565b506040518060400160405280600c81526020017f496e74657273656374696f6e0000000000000000000000000000000000000000815250600e6000600281526020019081526020016000209081620008f8919062000db9565b506040518060400160405280600781526020017f5370686572657300000000000000000000000000000000000000000000000000815250600e600060038152602001908152602001600020908162000951919062000db9565b506040518060400160405280600781526020017f5371756172657300000000000000000000000000000000000000000000000000815250600e6000600481526020019081526020016000209081620009aa919062000db9565b506001601260003373ffffffffffffffffffffffffffffffffffffffff1673ffffffffffffffffffffffffffffffffffffffff16815260200190815260200160002060006101000a81548160ff02191690831515021790555033600660006101000a81548173ffffffffffffffffffffffffffffffffffffffff021916908373ffffffffffffffffffffffffffffffffffffffff160217905550600a60078190555062000f2f565b82805482825590600052602060002090810192821562000a9f579160200282015b8281111562000a9e57825182908162000a8d919062000db9565b509160200191906001019062000a73565b5b50905062000aae919062000ab2565b5090565b5b8082111562000ad6576000818162000acc919062000ada565b5060010162000ab3565b5090565b50805462000ae89062000ba8565b6000825580601f1062000afc575062000b1d565b601f01602090049060005260206000209081019062000b1c919062000b20565b5b50565b5b8082111562000b3b57600081600090555060010162000b21565b5090565b600081519050919050565b7f4e487b7100000000000000000000000000000000000000000000000000000000600052604160045260246000fd5b7f4e487b7100000000000000000000000000000000000000000000000000000000600052602260045260246000fd5b6000600282049050600182168062000bc157607f821691505b60208210810362000bd75762000bd662000b79565b5b50919050565b60008190508160005260206000209050919050565b60006020601f8301049050919050565b600082821b905092915050565b60006008830262000c417fffffffffffffffffffffffffffffffffffffffffffffffffffffffffffffffff8262000c02565b62000c4d868362000c02565b95508019841693508086168417925050509392505050565b6000819050919050565b6000819050919050565b600062000c9a62000c9462000c8e8462000c65565b62000c6f565b62000c65565b9050919050565b6000819050919050565b62000cb68362000c79565b62000cce62000cc58262000ca1565b84845462000c0f565b825550505050565b600090565b62000ce562000cd6565b62000cf281848462000cab565b505050565b5b8181101562000d1a5762000d0e60008262000cdb565b60018101905062000cf8565b5050565b601f82111562000d695762000d338162000bdd565b62000d3e8462000bf2565b8101602085101562000d4e578190505b62000d6662000d5d8562000bf2565b83018262000cf7565b50505b505050565b600082821c905092915050565b600062000d8e6000198460080262000d6e565b1980831691505092915050565b600062000da9838362000d7b565b9150826002028217905092915050565b62000dc48262000b3f565b67ffffffffffffffff81111562000de05762000ddf62000b4a565b5b62000dec825462000ba8565b62000df982828562000d1e565b600060209050601f83116001811462000e31576000841562000e1c578287015190505b62000e28858262000d9b565b86555062000e98565b601f19841662000e418662000bdd565b60005b8281101562000e6b5784890151825560018201915060208501945060208101905062000e44565b8683101562000e8b578489015162000e87601f89168262000d7b565b8355505b6001600288020188555050505b505050505050565b600073ffffffffffffffffffffffffffffffffffffffff82169050919050565b600062000ecd8262000ea0565b9050919050565b62000edf8162000ec0565b82525050565b600060408201905062000efc600083018562000ed4565b62000f0b602083018462000ed4565b9392505050565b600060208201905062000f29600083018462000ed4565b92915050565b6143a38062000f3f6000396000f3fe608060405234801561001057600080fd5b506004361061014d5760003560e01c80636352211e116100c3578063b88d4fde1161007c578063b88d4fde14610386578063c87b56dd146103a2578063cef6d368146103d2578063d3b8614114610403578063e985e9c51461041f578063e9e43f1f1461044f5761014d565b80636352211e146102b457806370a08231146102e45780638c7ea24b1461031457806395d89b4114610330578063a22cb4651461034e578063a647e8ec1461036a5761014d565b806323b872dd1161011557806323b872dd14610208578063248225141461022457806341f434341461024257806342842e0e1461026057806342966c681461027c57806351cff8d9146102985761014d565b806301ffc9a71461015257806302fe53051461018257806306fdde031461019e578063081812fc146101bc578063095ea7b3146101ec575b600080fd5b61016c6004803603810190610167919061279b565b61047f565b60405161017991906127e3565b60405180910390f35b61019c60048036038101906101979190612863565b610509565b005b6101a66105ab565b6040516101b39190612940565b60405180910390f35b6101d660048036038101906101d19190612998565b61063d565b6040516101e39190612a06565b60405180910390f35b61020660048036038101906102019190612a4d565b610683565b005b610222600480360381019061021d9190612a8d565b61069c565b005b61022c6106eb565b6040516102399190612aef565b60405180910390f35b61024a6106f1565b6040516102579190612b69565b60405180910390f35b61027a60048036038101906102759190612a8d565b610703565b005b61029660048036038101906102919190612998565b610752565b005b6102b260048036038101906102ad9190612b84565b6107da565b005b6102ce60048036038101906102c99190612998565b6108b0565b6040516102db9190612a06565b60405180910390f35b6102fe60048036038101906102f99190612b84565b610936565b60405161030b9190612aef565b60405180910390f35b61032e60048036038101906103299190612bef565b6109ed565b005b610338610ac5565b6040516103459190612940565b60405180910390f35b61036860048036038101906103639190612c5b565b610b57565b005b610384600480360381019061037f9190612c9b565b610b70565b005b6103a0600480360381019061039b9190612e32565b610cd2565b005b6103bc60048036038101906103b79190612998565b610d23565b6040516103c99190612940565b60405180910390f35b6103ec60048036038101906103e79190612998565b611102565b6040516103fa929190612eb5565b60405180910390f35b61041d60048036038101906104189190612b84565b6111ae565b005b61043960048036038101906104349190612ede565b6112e1565b60405161044691906127e3565b60405180910390f35b61046960048036038101906104649190612b84565b611375565b60405161047691906127e3565b60405180910390f35b600061048a82611395565b806104f257507f2a55205a000000000000000000000000000000000000000000000000000000007bffffffffffffffffffffffffffffffffffffffffffffffffffffffff1916827bffffffffffffffffffffffffffffffffffffffffffffffffffffffff1916145b80610502575061050182611395565b5b9050919050565b601260003373ffffffffffffffffffffffffffffffffffffffff1673ffffffffffffffffffffffffffffffffffffffff16815260200190815260200160002060009054906101000a900460ff16610595576040517f08c379a000000000000000000000000000000000000000000000000000000000815260040161058c90612f90565b60405180910390fd5b8181600a91826105a69291906131bd565b505050565b6060600080546105ba90612fea565b80601f01602080910402602001604051908101604052809291908181526020018280546105e690612fea565b80156106335780601f1061060857610100808354040283529160200191610633565b820191906000526020600020905b81548152906001019060200180831161061657829003601f168201915b5050505050905090565b600061064882611477565b6004600083815260200190815260200160002060009054906101000a900473ffffffffffffffffffffffffffffffffffffffff169050919050565b8161068d816114c2565b61069783836115bf565b505050565b823373ffffffffffffffffffffffffffffffffffffffff168173ffffffffffffffffffffffffffffffffffffffff16146106da576106d9336114c2565b5b6106e58484846116d6565b50505050565b60085481565b6daaeb6d7670e522a718067333cd4e81565b823373ffffffffffffffffffffffffffffffffffffffff168173ffffffffffffffffffffffffffffffffffffffff161461074157610740336114c2565b5b61074c848484611736565b50505050565b600061075d826108b0565b90508073ffffffffffffffffffffffffffffffffffffffff163373ffffffffffffffffffffffffffffffffffffffff16146107cd576040517f08c379a00000000000000000000000000000000000000000000000000000000081526004016107c4906132d9565b60405180910390fd5b6107d682611756565b5050565b601260003373ffffffffffffffffffffffffffffffffffffffff1673ffffffffffffffffffffffffffffffffffffffff16815260200190815260200160002060009054906101000a900460ff16610866576040517f08c379a000000000000000000000000000000000000000000000000000000000815260040161085d90612f90565b60405180910390fd5b8073ffffffffffffffffffffffffffffffffffffffff166108fc479081150290604051600060405180830381858888f193505050501580156108ac573d6000803e3d6000fd5b5050565b6000806108bc836118a4565b9050600073ffffffffffffffffffffffffffffffffffffffff168173ffffffffffffffffffffffffffffffffffffffff160361092d576040517f08c379a000000000000000000000000000000000000000000000000000000000815260040161092490613345565b60405180910390fd5b80915050919050565b60008073ffffffffffffffffffffffffffffffffffffffff168273ffffffffffffffffffffffffffffffffffffffff16036109a6576040517f08c379a000000000000000000000000000000000000000000000000000000000815260040161099d906133d7565b60405180910390fd5b600360008373ffffffffffffffffffffffffffffffffffffffff1673ffffffffffffffffffffffffffffffffffffffff168152602001908152602001600020549050919050565b601260003373ffffffffffffffffffffffffffffffffffffffff1673ffffffffffffffffffffffffffffffffffffffff16815260200190815260200160002060009054906101000a900460ff16610a79576040517f08c379a0000000000000000000000000000000000000000000000000000000008152600401610a7090612f90565b60405180910390fd5b81600660006101000a81548173ffffffffffffffffffffffffffffffffffffffff021916908373ffffffffffffffffffffffffffffffffffffffff160217905550806007819055505050565b606060018054610ad490612fea565b80601f0160208091040260200160405190810160405280929190818152602001828054610b0090612fea565b8015610b4d5780601f10610b2257610100808354040283529160200191610b4d565b820191906000526020600020905b815481529060010190602001808311610b3057829003601f168201915b5050505050905090565b81610b61816114c2565b610b6b83836118e1565b505050565b601260003373ffffffffffffffffffffffffffffffffffffffff1673ffffffffffffffffffffffffffffffffffffffff16815260200190815260200160002060009054906101000a900460ff16610bfc576040517f08c379a0000000000000000000000000000000000000000000000000000000008152600401610bf390612f90565b60405180910390fd5b610c08846008546118f7565b82600f600060085481526020019081526020016000208190555081601060006008548152602001908152602001600020819055508060116000600854815260200190815260200160002081905550610c5f83611b14565b610c6883611b14565b610c7183611b14565b604051602001610c8393929190613433565b604051602081830303815290604052600b600060085481526020019081526020016000209081610cb39190613464565b5060086000815480929190610cc790613565565b919050555050505050565b833373ffffffffffffffffffffffffffffffffffffffff168173ffffffffffffffffffffffffffffffffffffffff1614610d1057610d0f336114c2565b5b610d1c85858585611be2565b5050505050565b6060610d2e82611c44565b610d6d576040517f08c379a0000000000000000000000000000000000000000000000000000000008152600401610d649061361f565b60405180910390fd5b60608060608060606040518060400160405280600b81526020017f436f6e737472756374756d000000000000000000000000000000000000000000815250945060405180610120016040528060e8815260200161428660e891399350600c6000600f60008a8152602001908152602001600020548152602001908152602001600020600d6000601060008b8152602001908152602001600020548152602001908152602001600020600e6000601160008c8152602001908152602001600020548152602001908152602001600020604051602001610e4d93929190613864565b6040516020818303038152906040529050600a600b6000898152602001908152602001600020604051602001610e84929190613959565b6040516020818303038152906040529250600a600b6000898152602001908152602001600020604051602001610ebb929190613a2b565b604051602081830303815290604052915060006009600081548110610ee357610ee2613a65565b5b9060005260206000200186604051602001610eff929190613a94565b6040516020818303038152906040526009600181548110610f2357610f22613a65565b5b9060005260206000200186604051602001610f3f929190613a94565b6040516020818303038152906040526009600281548110610f6357610f62613a65565b5b9060005260206000200186604051602001610f7f929190613a94565b6040516020818303038152906040526009600381548110610fa357610fa2613a65565b5b9060005260206000200187604051602001610fbf929190613a94565b6040516020818303038152906040526009600481548110610fe357610fe2613a65565b5b9060005260206000200187604051602001610fff929190613a94565b604051602081830303815290604052600960058154811061102357611022613a65565b5b906000526020600020018860405160200161103f929190613a94565b604051602081830303815290604052600960068154811061106357611062613a65565b5b906000526020600020018860405160200161107f929190613a94565b60405160208183030381529060405260096007815481106110a3576110a2613a65565b5b906000526020600020016040516020016110bd9190613ab8565b6040516020818303038152906040526040516020016110e3989796959493929190613b16565b6040516020818303038152906040529050809650505050505050919050565b600080600073ffffffffffffffffffffffffffffffffffffffff16600660009054906101000a900473ffffffffffffffffffffffffffffffffffffffff1673ffffffffffffffffffffffffffffffffffffffff16146111a157600660009054906101000a900473ffffffffffffffffffffffffffffffffffffffff1660646007548561118e9190613b88565b6111989190613bf9565b915091506111a9565b600080915091505b915091565b601260003373ffffffffffffffffffffffffffffffffffffffff1673ffffffffffffffffffffffffffffffffffffffff16815260200190815260200160002060009054906101000a900460ff1661123a576040517f08c379a000000000000000000000000000000000000000000000000000000000815260040161123190612f90565b60405180910390fd5b601260008273ffffffffffffffffffffffffffffffffffffffff1673ffffffffffffffffffffffffffffffffffffffff16815260200190815260200160002060009054906101000a900460ff1615601260008373ffffffffffffffffffffffffffffffffffffffff1673ffffffffffffffffffffffffffffffffffffffff16815260200190815260200160002060006101000a81548160ff02191690831515021790555050565b6000600560008473ffffffffffffffffffffffffffffffffffffffff1673ffffffffffffffffffffffffffffffffffffffff16815260200190815260200160002060008373ffffffffffffffffffffffffffffffffffffffff1673ffffffffffffffffffffffffffffffffffffffff16815260200190815260200160002060009054906101000a900460ff16905092915050565b60126020528060005260406000206000915054906101000a900460ff1681565b60007f80ac58cd000000000000000000000000000000000000000000000000000000007bffffffffffffffffffffffffffffffffffffffffffffffffffffffff1916827bffffffffffffffffffffffffffffffffffffffffffffffffffffffff1916148061146057507f5b5e139f000000000000000000000000000000000000000000000000000000007bffffffffffffffffffffffffffffffffffffffffffffffffffffffff1916827bffffffffffffffffffffffffffffffffffffffffffffffffffffffff1916145b80611470575061146f82611c85565b5b9050919050565b61148081611c44565b6114bf576040517f08c379a00000000000000000000000000000000000000000000000000000000081526004016114b690613345565b60405180910390fd5b50565b60006daaeb6d7670e522a718067333cd4e73ffffffffffffffffffffffffffffffffffffffff163b11156115bc576daaeb6d7670e522a718067333cd4e73ffffffffffffffffffffffffffffffffffffffff1663c617113430836040518363ffffffff1660e01b8152600401611539929190613c2a565b602060405180830381865afa158015611556573d6000803e3d6000fd5b505050506040513d601f19601f8201168201806040525081019061157a9190613c68565b6115bb57806040517fede71dcc0000000000000000000000000000000000000000000000000000000081526004016115b29190612a06565b60405180910390fd5b5b50565b60006115ca826108b0565b90508073ffffffffffffffffffffffffffffffffffffffff168373ffffffffffffffffffffffffffffffffffffffff160361163a576040517f08c379a000000000000000000000000000000000000000000000000000000000815260040161163190613d07565b60405180910390fd5b8073ffffffffffffffffffffffffffffffffffffffff16611659611cef565b73ffffffffffffffffffffffffffffffffffffffff161480611688575061168781611682611cef565b6112e1565b5b6116c7576040517f08c379a00000000000000000000000000000000000000000000000000000000081526004016116be90613d99565b60405180910390fd5b6116d18383611cf7565b505050565b6116e76116e1611cef565b82611db0565b611726576040517f08c379a000000000000000000000000000000000000000000000000000000000815260040161171d90613e2b565b60405180910390fd5b611731838383611e45565b505050565b61175183838360405180602001604052806000815250610cd2565b505050565b6000611761826108b0565b905061177181600084600161213e565b61177a826108b0565b90506004600083815260200190815260200160002060006101000a81549073ffffffffffffffffffffffffffffffffffffffff02191690556001600360008373ffffffffffffffffffffffffffffffffffffffff1673ffffffffffffffffffffffffffffffffffffffff168152602001908152602001600020600082825403925050819055506002600083815260200190815260200160002060006101000a81549073ffffffffffffffffffffffffffffffffffffffff021916905581600073ffffffffffffffffffffffffffffffffffffffff168273ffffffffffffffffffffffffffffffffffffffff167fddf252ad1be2c89b69c2b068fc378daa952ba7f163c4a11628f55a4df523b3ef60405160405180910390a46118a0816000846001612264565b5050565b60006002600083815260200190815260200160002060009054906101000a900473ffffffffffffffffffffffffffffffffffffffff169050919050565b6118f36118ec611cef565b838361226a565b5050565b600073ffffffffffffffffffffffffffffffffffffffff168273ffffffffffffffffffffffffffffffffffffffff1603611966576040517f08c379a000000000000000000000000000000000000000000000000000000000815260040161195d90613e97565b60405180910390fd5b61196f81611c44565b156119af576040517f08c379a00000000000000000000000000000000000000000000000000000000081526004016119a690613f03565b60405180910390fd5b6119bd60008383600161213e565b6119c681611c44565b15611a06576040517f08c379a00000000000000000000000000000000000000000000000000000000081526004016119fd90613f03565b60405180910390fd5b6001600360008473ffffffffffffffffffffffffffffffffffffffff1673ffffffffffffffffffffffffffffffffffffffff16815260200190815260200160002060008282540192505081905550816002600083815260200190815260200160002060006101000a81548173ffffffffffffffffffffffffffffffffffffffff021916908373ffffffffffffffffffffffffffffffffffffffff160217905550808273ffffffffffffffffffffffffffffffffffffffff16600073ffffffffffffffffffffffffffffffffffffffff167fddf252ad1be2c89b69c2b068fc378daa952ba7f163c4a11628f55a4df523b3ef60405160405180910390a4611b10600083836001612264565b5050565b606060006001611b23846123d6565b01905060008167ffffffffffffffff811115611b4257611b41612d07565b5b6040519080825280601f01601f191660200182016040528015611b745781602001600182028036833780820191505090505b509050600082602001820190505b600115611bd7578080600190039150507f3031323334353637383961626364656600000000000000000000000000000000600a86061a8153600a8581611bcb57611bca613bca565b5b04945060008503611b82575b819350505050919050565b611bf3611bed611cef565b83611db0565b611c32576040517f08c379a0000000000000000000000000000000000000000000000000000000008152600401611c2990613e2b565b60405180910390fd5b611c3e84848484612529565b50505050565b60008073ffffffffffffffffffffffffffffffffffffffff16611c66836118a4565b73ffffffffffffffffffffffffffffffffffffffff1614159050919050565b60007f01ffc9a7000000000000000000000000000000000000000000000000000000007bffffffffffffffffffffffffffffffffffffffffffffffffffffffff1916827bffffffffffffffffffffffffffffffffffffffffffffffffffffffff1916149050919050565b600033905090565b816004600083815260200190815260200160002060006101000a81548173ffffffffffffffffffffffffffffffffffffffff021916908373ffffffffffffffffffffffffffffffffffffffff160217905550808273ffffffffffffffffffffffffffffffffffffffff16611d6a836108b0565b73ffffffffffffffffffffffffffffffffffffffff167f8c5be1e5ebec7d5bd14f71427d1e84f3dd0314c0f7b2291e5b200ac8c7c3b92560405160405180910390a45050565b600080611dbc836108b0565b90508073ffffffffffffffffffffffffffffffffffffffff168473ffffffffffffffffffffffffffffffffffffffff161480611dfe5750611dfd81856112e1565b5b80611e3c57508373ffffffffffffffffffffffffffffffffffffffff16611e248461063d565b73ffffffffffffffffffffffffffffffffffffffff16145b91505092915050565b8273ffffffffffffffffffffffffffffffffffffffff16611e65826108b0565b73ffffffffffffffffffffffffffffffffffffffff1614611ebb576040517f08c379a0000000000000000000000000000000000000000000000000000000008152600401611eb290613f95565b60405180910390fd5b600073ffffffffffffffffffffffffffffffffffffffff168273ffffffffffffffffffffffffffffffffffffffff1603611f2a576040517f08c379a0000000000000000000000000000000000000000000000000000000008152600401611f2190614027565b60405180910390fd5b611f37838383600161213e565b8273ffffffffffffffffffffffffffffffffffffffff16611f57826108b0565b73ffffffffffffffffffffffffffffffffffffffff1614611fad576040517f08c379a0000000000000000000000000000000000000000000000000000000008152600401611fa490613f95565b60405180910390fd5b6004600082815260200190815260200160002060006101000a81549073ffffffffffffffffffffffffffffffffffffffff02191690556001600360008573ffffffffffffffffffffffffffffffffffffffff1673ffffffffffffffffffffffffffffffffffffffff168152602001908152602001600020600082825403925050819055506001600360008473ffffffffffffffffffffffffffffffffffffffff1673ffffffffffffffffffffffffffffffffffffffff16815260200190815260200160002060008282540192505081905550816002600083815260200190815260200160002060006101000a81548173ffffffffffffffffffffffffffffffffffffffff021916908373ffffffffffffffffffffffffffffffffffffffff160217905550808273ffffffffffffffffffffffffffffffffffffffff168473ffffffffffffffffffffffffffffffffffffffff167fddf252ad1be2c89b69c2b068fc378daa952ba7f163c4a11628f55a4df523b3ef60405160405180910390a46121398383836001612264565b505050565b600181111561225e57600073ffffffffffffffffffffffffffffffffffffffff168473ffffffffffffffffffffffffffffffffffffffff16146121d25780600360008673ffffffffffffffffffffffffffffffffffffffff1673ffffffffffffffffffffffffffffffffffffffff16815260200190815260200160002060008282546121ca9190614047565b925050819055505b600073ffffffffffffffffffffffffffffffffffffffff168373ffffffffffffffffffffffffffffffffffffffff161461225d5780600360008573ffffffffffffffffffffffffffffffffffffffff1673ffffffffffffffffffffffffffffffffffffffff1681526020019081526020016000206000828254612255919061407b565b925050819055505b5b50505050565b50505050565b8173ffffffffffffffffffffffffffffffffffffffff168373ffffffffffffffffffffffffffffffffffffffff16036122d8576040517f08c379a00000000000000000000000000000000000000000000000000000000081526004016122cf906140fb565b60405180910390fd5b80600560008573ffffffffffffffffffffffffffffffffffffffff1673ffffffffffffffffffffffffffffffffffffffff16815260200190815260200160002060008473ffffffffffffffffffffffffffffffffffffffff1673ffffffffffffffffffffffffffffffffffffffff16815260200190815260200160002060006101000a81548160ff0219169083151502179055508173ffffffffffffffffffffffffffffffffffffffff168373ffffffffffffffffffffffffffffffffffffffff167f17307eab39ab6107e8899845ad3d59bd9653f200f220920489ca2b5937696c31836040516123c991906127e3565b60405180910390a3505050565b600080600090507a184f03e93ff9f4daa797ed6e38ed64bf6a1f0100000000000000008310612434577a184f03e93ff9f4daa797ed6e38ed64bf6a1f010000000000000000838161242a57612429613bca565b5b0492506040810190505b6d04ee2d6d415b85acef81000000008310612471576d04ee2d6d415b85acef8100000000838161246757612466613bca565b5b0492506020810190505b662386f26fc1000083106124a057662386f26fc10000838161249657612495613bca565b5b0492506010810190505b6305f5e10083106124c9576305f5e10083816124bf576124be613bca565b5b0492506008810190505b61271083106124ee5761271083816124e4576124e3613bca565b5b0492506004810190505b60648310612511576064838161250757612506613bca565b5b0492506002810190505b600a8310612520576001810190505b80915050919050565b612534848484611e45565b61254084848484612585565b61257f576040517f08c379a00000000000000000000000000000000000000000000000000000000081526004016125769061418d565b60405180910390fd5b50505050565b60006125a68473ffffffffffffffffffffffffffffffffffffffff1661270c565b156126ff578373ffffffffffffffffffffffffffffffffffffffff1663150b7a026125cf611cef565b8786866040518563ffffffff1660e01b81526004016125f194939291906141f7565b6020604051808303816000875af192505050801561262d57506040513d601f19601f8201168201806040525081019061262a9190614258565b60015b6126af573d806000811461265d576040519150601f19603f3d011682016040523d82523d6000602084013e612662565b606091505b5060008151036126a7576040517f08c379a000000000000000000000000000000000000000000000000000000000815260040161269e9061418d565b60405180910390fd5b805181602001fd5b63150b7a0260e01b7bffffffffffffffffffffffffffffffffffffffffffffffffffffffff1916817bffffffffffffffffffffffffffffffffffffffffffffffffffffffff191614915050612704565b600190505b949350505050565b6000808273ffffffffffffffffffffffffffffffffffffffff163b119050919050565b6000604051905090565b600080fd5b600080fd5b60007fffffffff0000000000000000000000000000000000000000000000000000000082169050919050565b61277881612743565b811461278357600080fd5b50565b6000813590506127958161276f565b92915050565b6000602082840312156127b1576127b0612739565b5b60006127bf84828501612786565b91505092915050565b60008115159050919050565b6127dd816127c8565b82525050565b60006020820190506127f860008301846127d4565b92915050565b600080fd5b600080fd5b600080fd5b60008083601f840112612823576128226127fe565b5b8235905067ffffffffffffffff8111156128405761283f612803565b5b60208301915083600182028301111561285c5761285b612808565b5b9250929050565b6000806020838503121561287a57612879612739565b5b600083013567ffffffffffffffff8111156128985761289761273e565b5b6128a48582860161280d565b92509250509250929050565b600081519050919050565b600082825260208201905092915050565b60005b838110156128ea5780820151818401526020810190506128cf565b60008484015250505050565b6000601f19601f8301169050919050565b6000612912826128b0565b61291c81856128bb565b935061292c8185602086016128cc565b612935816128f6565b840191505092915050565b6000602082019050818103600083015261295a8184612907565b905092915050565b6000819050919050565b61297581612962565b811461298057600080fd5b50565b6000813590506129928161296c565b92915050565b6000602082840312156129ae576129ad612739565b5b60006129bc84828501612983565b91505092915050565b600073ffffffffffffffffffffffffffffffffffffffff82169050919050565b60006129f0826129c5565b9050919050565b612a00816129e5565b82525050565b6000602082019050612a1b60008301846129f7565b92915050565b612a2a816129e5565b8114612a3557600080fd5b50565b600081359050612a4781612a21565b92915050565b60008060408385031215612a6457612a63612739565b5b6000612a7285828601612a38565b9250506020612a8385828601612983565b9150509250929050565b600080600060608486031215612aa657612aa5612739565b5b6000612ab486828701612a38565b9350506020612ac586828701612a38565b9250506040612ad686828701612983565b9150509250925092565b612ae981612962565b82525050565b6000602082019050612b046000830184612ae0565b92915050565b6000819050919050565b6000612b2f612b2a612b25846129c5565b612b0a565b6129c5565b9050919050565b6000612b4182612b14565b9050919050565b6000612b5382612b36565b9050919050565b612b6381612b48565b82525050565b6000602082019050612b7e6000830184612b5a565b92915050565b600060208284031215612b9a57612b99612739565b5b6000612ba884828501612a38565b91505092915050565b6000612bbc826129c5565b9050919050565b612bcc81612bb1565b8114612bd757600080fd5b50565b600081359050612be981612bc3565b92915050565b60008060408385031215612c0657612c05612739565b5b6000612c1485828601612bda565b9250506020612c2585828601612983565b9150509250929050565b612c38816127c8565b8114612c4357600080fd5b50565b600081359050612c5581612c2f565b92915050565b60008060408385031215612c7257612c71612739565b5b6000612c8085828601612a38565b9250506020612c9185828601612c46565b9150509250929050565b60008060008060808587031215612cb557612cb4612739565b5b6000612cc387828801612a38565b9450506020612cd487828801612983565b9350506040612ce587828801612983565b9250506060612cf687828801612983565b91505092959194509250565b600080fd5b7f4e487b7100000000000000000000000000000000000000000000000000000000600052604160045260246000fd5b612d3f826128f6565b810181811067ffffffffffffffff82111715612d5e57612d5d612d07565b5b80604052505050565b6000612d7161272f565b9050612d7d8282612d36565b919050565b600067ffffffffffffffff821115612d9d57612d9c612d07565b5b612da6826128f6565b9050602081019050919050565b82818337600083830152505050565b6000612dd5612dd084612d82565b612d67565b905082815260208101848484011115612df157612df0612d02565b5b612dfc848285612db3565b509392505050565b600082601f830112612e1957612e186127fe565b5b8135612e29848260208601612dc2565b91505092915050565b60008060008060808587031215612e4c57612e4b612739565b5b6000612e5a87828801612a38565b9450506020612e6b87828801612a38565b9350506040612e7c87828801612983565b925050606085013567ffffffffffffffff811115612e9d57612e9c61273e565b5b612ea987828801612e04565b91505092959194509250565b6000604082019050612eca60008301856129f7565b612ed76020830184612ae0565b9392505050565b60008060408385031215612ef557612ef4612739565b5b6000612f0385828601612a38565b9250506020612f1485828601612a38565b9150509250929050565b7f4f6e6c792061646d696e732063616e20706572666f6d2074686973206163746960008201527f6f6e000000000000000000000000000000000000000000000000000000000000602082015250565b6000612f7a6022836128bb565b9150612f8582612f1e565b604082019050919050565b60006020820190508181036000830152612fa981612f6d565b9050919050565b600082905092915050565b7f4e487b7100000000000000000000000000000000000000000000000000000000600052602260045260246000fd5b6000600282049050600182168061300257607f821691505b60208210810361301557613014612fbb565b5b50919050565b60008190508160005260206000209050919050565b60006020601f8301049050919050565b600082821b905092915050565b60006008830261307d7fffffffffffffffffffffffffffffffffffffffffffffffffffffffffffffffff82613040565b6130878683613040565b95508019841693508086168417925050509392505050565b60006130ba6130b56130b084612962565b612b0a565b612962565b9050919050565b6000819050919050565b6130d48361309f565b6130e86130e0826130c1565b84845461304d565b825550505050565b600090565b6130fd6130f0565b6131088184846130cb565b505050565b5b8181101561312c576131216000826130f5565b60018101905061310e565b5050565b601f821115613171576131428161301b565b61314b84613030565b8101602085101561315a578190505b61316e61316685613030565b83018261310d565b50505b505050565b600082821c905092915050565b600061319460001984600802613176565b1980831691505092915050565b60006131ad8383613183565b9150826002028217905092915050565b6131c78383612fb0565b67ffffffffffffffff8111156131e0576131df612d07565b5b6131ea8254612fea565b6131f5828285613130565b6000601f8311600181146132245760008415613212578287013590505b61321c85826131a1565b865550613284565b601f1984166132328661301b565b60005b8281101561325a57848901358255600182019150602085019450602081019050613235565b868310156132775784890135613273601f891682613183565b8355505b6001600288020188555050505b50505050505050565b7f4f776e6572206f6e6c7900000000000000000000000000000000000000000000600082015250565b60006132c3600a836128bb565b91506132ce8261328d565b602082019050919050565b600060208201905081810360008301526132f2816132b6565b9050919050565b7f4552433732313a20696e76616c696420746f6b656e2049440000000000000000600082015250565b600061332f6018836128bb565b915061333a826132f9565b602082019050919050565b6000602082019050818103600083015261335e81613322565b9050919050565b7f4552433732313a2061646472657373207a65726f206973206e6f74206120766160008201527f6c6964206f776e65720000000000000000000000000000000000000000000000602082015250565b60006133c16029836128bb565b91506133cc82613365565b604082019050919050565b600060208201905081810360008301526133f0816133b4565b9050919050565b600081905092915050565b600061340d826128b0565b61341781856133f7565b93506134278185602086016128cc565b80840191505092915050565b600061343f8286613402565b915061344b8285613402565b91506134578284613402565b9150819050949350505050565b61346d826128b0565b67ffffffffffffffff81111561348657613485612d07565b5b6134908254612fea565b61349b828285613130565b600060209050601f8311600181146134ce57600084156134bc578287015190505b6134c685826131a1565b86555061352e565b601f1984166134dc8661301b565b60005b82811015613504578489015182556001820191506020850194506020810190506134df565b86831015613521578489015161351d601f891682613183565b8355505b6001600288020188555050505b505050505050565b7f4e487b7100000000000000000000000000000000000000000000000000000000600052601160045260246000fd5b600061357082612962565b91507fffffffffffffffffffffffffffffffffffffffffffffffffffffffffffffffff82036135a2576135a1613536565b5b600182019050919050565b7f4552433732314d657461646174613a2055524920717565727920666f72206e6f60008201527f6e6578697374656e7420746f6b656e0000000000000000000000000000000000602082015250565b6000613609602f836128bb565b9150613614826135ad565b604082019050919050565b60006020820190508181036000830152613638816135fc565b9050919050565b7f7b2274726169745f74797065223a2022436f6c6f72222c202276616c7565223a60008201527f2022000000000000000000000000000000000000000000000000000000000000602082015250565b600061369b6022836133f7565b91506136a68261363f565b602282019050919050565b600081546136be81612fea565b6136c881866133f7565b945060018216600081146136e357600181146136f85761372b565b60ff198316865281151582028601935061372b565b6137018561301b565b60005b8381101561372357815481890152600182019150602081019050613704565b838801955050505b50505092915050565b7f227d2c7b2274726169745f74797065223a20224f75746572205368656c6c222c60008201527f202276616c7565223a2022000000000000000000000000000000000000000000602082015250565b6000613790602b836133f7565b915061379b82613734565b602b82019050919050565b7f227d2c7b2274726169745f74797065223a20224465636f726174696f6e222c2060008201527f2276616c7565223a202200000000000000000000000000000000000000000000602082015250565b6000613802602a836133f7565b915061380d826137a6565b602a82019050919050565b7f227d000000000000000000000000000000000000000000000000000000000000600082015250565b600061384e6002836133f7565b915061385982613818565b600282019050919050565b600061386f8261368e565b915061387b82866136b1565b915061388682613783565b915061389282856136b1565b915061389d826137f5565b91506138a982846136b1565b91506138b482613841565b9150819050949350505050565b7f2f696d616765732f000000000000000000000000000000000000000000000000600082015250565b60006138f76008836133f7565b9150613902826138c1565b600882019050919050565b7f2e6a706700000000000000000000000000000000000000000000000000000000600082015250565b60006139436004836133f7565b915061394e8261390d565b600482019050919050565b600061396582856136b1565b9150613970826138ea565b915061397c82846136b1565b915061398782613936565b91508190509392505050565b7f2f616e696d6174696f6e732f0000000000000000000000000000000000000000600082015250565b60006139c9600c836133f7565b91506139d482613993565b600c82019050919050565b7f2e6d703400000000000000000000000000000000000000000000000000000000600082015250565b6000613a156004836133f7565b9150613a20826139df565b600482019050919050565b6000613a3782856136b1565b9150613a42826139bc565b9150613a4e82846136b1565b9150613a5982613a08565b91508190509392505050565b7f4e487b7100000000000000000000000000000000000000000000000000000000600052603260045260246000fd5b6000613aa082856136b1565b9150613aac8284613402565b91508190509392505050565b6000613ac482846136b1565b915081905092915050565b600081519050919050565b600081905092915050565b6000613af082613acf565b613afa8185613ada565b9350613b0a8185602086016128cc565b80840191505092915050565b6000613b22828b613ae5565b9150613b2e828a613ae5565b9150613b3a8289613ae5565b9150613b468288613ae5565b9150613b528287613ae5565b9150613b5e8286613ae5565b9150613b6a8285613ae5565b9150613b768284613ae5565b91508190509998505050505050505050565b6000613b9382612962565b9150613b9e83612962565b9250828202613bac81612962565b91508282048414831517613bc357613bc2613536565b5b5092915050565b7f4e487b7100000000000000000000000000000000000000000000000000000000600052601260045260246000fd5b6000613c0482612962565b9150613c0f83612962565b925082613c1f57613c1e613bca565b5b828204905092915050565b6000604082019050613c3f60008301856129f7565b613c4c60208301846129f7565b9392505050565b600081519050613c6281612c2f565b92915050565b600060208284031215613c7e57613c7d612739565b5b6000613c8c84828501613c53565b91505092915050565b7f4552433732313a20617070726f76616c20746f2063757272656e74206f776e6560008201527f7200000000000000000000000000000000000000000000000000000000000000602082015250565b6000613cf16021836128bb565b9150613cfc82613c95565b604082019050919050565b60006020820190508181036000830152613d2081613ce4565b9050919050565b7f4552433732313a20617070726f76652063616c6c6572206973206e6f7420746f60008201527f6b656e206f776e6572206f7220617070726f76656420666f7220616c6c000000602082015250565b6000613d83603d836128bb565b9150613d8e82613d27565b604082019050919050565b60006020820190508181036000830152613db281613d76565b9050919050565b7f4552433732313a2063616c6c6572206973206e6f7420746f6b656e206f776e6560008201527f72206f7220617070726f76656400000000000000000000000000000000000000602082015250565b6000613e15602d836128bb565b9150613e2082613db9565b604082019050919050565b60006020820190508181036000830152613e4481613e08565b9050919050565b7f4552433732313a206d696e7420746f20746865207a65726f2061646472657373600082015250565b6000613e816020836128bb565b9150613e8c82613e4b565b602082019050919050565b60006020820190508181036000830152613eb081613e74565b9050919050565b7f4552433732313a20746f6b656e20616c7265616479206d696e74656400000000600082015250565b6000613eed601c836128bb565b9150613ef882613eb7565b602082019050919050565b60006020820190508181036000830152613f1c81613ee0565b9050919050565b7f4552433732313a207472616e736665722066726f6d20696e636f72726563742060008201527f6f776e6572000000000000000000000000000000000000000000000000000000602082015250565b6000613f7f6025836128bb565b9150613f8a82613f23565b604082019050919050565b60006020820190508181036000830152613fae81613f72565b9050919050565b7f4552433732313a207472616e7366657220746f20746865207a65726f2061646460008201527f7265737300000000000000000000000000000000000000000000000000000000602082015250565b60006140116024836128bb565b915061401c82613fb5565b604082019050919050565b6000602082019050818103600083015261404081614004565b9050919050565b600061405282612962565b915061405d83612962565b925082820390508181111561407557614074613536565b5b92915050565b600061408682612962565b915061409183612962565b92508282019050808211156140a9576140a8613536565b5b92915050565b7f4552433732313a20617070726f766520746f2063616c6c657200000000000000600082015250565b60006140e56019836128bb565b91506140f0826140af565b602082019050919050565b60006020820190508181036000830152614114816140d8565b9050919050565b7f4552433732313a207472616e7366657220746f206e6f6e20455243373231526560008201527f63656976657220696d706c656d656e7465720000000000000000000000000000602082015250565b60006141776032836128bb565b91506141828261411b565b604082019050919050565b600060208201905081810360008301526141a68161416a565b9050919050565b600082825260208201905092915050565b60006141c982613acf565b6141d381856141ad565b93506141e38185602086016128cc565b6141ec816128f6565b840191505092915050565b600060808201905061420c60008301876129f7565b61421960208301866129f7565b6142266040830185612ae0565b818103606083015261423881846141be565b905095945050505050565b6000815190506142528161276f565b92915050565b60006020828403121561426e5761426d612739565b5b600061427c84828501614243565b9150509291505056fe436f6e737472756374756d20697320616e20696e7465726163746976652064726f70207768657265206d696e74657273206d616b652063686f6963657320746f20637573746f6d697a65207468656972204e46542e205468657265206172652031323520706f737369626c65206f7574636f6d65732c20627574206f6e6c792035352077696c6c206576657220636f6d6520746f206c6966652e20417274776f726b2062792053696d706c7920416e646572732e20437573746f6d207765627369746520616e6420736d61727420636f6e747261637420627920536d617274636f6e74726172742ea26469706673582212200284718a75ad0e9e3ad830346fdb9c16849d7ef81ef89d3e6e667bf4e7681e3b64736f6c63430008110033222c2022637265617465645f6279223a2253696d706c7920416e64657273222c2022696d616765223a22646174613a6170706c69636174696f6e2f6a736f6e3b757466382c7b226e616d65223a22",
  "immutableReferences": {},
  "source": "// SPDX-License-Identifier: MIT\n\npragma solidity >= 0.8.17;\n\nimport \"@openzeppelin/contracts/token/ERC721/ERC721.sol\";\nimport \"operator-filter-registry/src/DefaultOperatorFilterer.sol\";\nimport \"@manifoldxyz/royalty-registry-solidity/contracts/specs/IEIP2981.sol\";\nimport \"@openzeppelin/contracts/utils/Strings.sol\";\n\ncontract Constructum is ERC721, DefaultOperatorFilterer {\n    \n    address payable  private _royalties_recipient;\n    \n    uint256 private _royaltyAmount; //in % \n    uint256 public _tokenId;\n\n    string[] private _uriComponents;\n    string private _uri;\n\n    mapping(uint256 => string) _visuals;    \n    mapping(uint256 => string) _innerColorsOptions;\n    mapping(uint256 => string) _outerOptions;\n    mapping(uint256 => string) _decorationsOptions;\n    mapping(uint256 => uint256) _innerColors;\n    mapping(uint256 => uint256) _outerColors;\n    mapping(uint256 => uint256) _decorations;\n    mapping(address => bool) public _isAdmin;\n    \n    constructor () ERC721(\"Constructum\", \"Constructum\") {\n        _tokenId = 0;\n        _uriComponents = [\n                'data:application/json;utf8,{\"name\":\"',\n                '\", \"description\":\"',\n                '\", \"created_by\":\"Simply Anders\", \"image\":\"',\n                '\", \"image_url\":\"',\n                '\", \"animation\":\"',\n                '\", \"animation_url\":\"',\n                '\", \"attributes\":[',\n                ']}'];\n\n        _innerColorsOptions[0] = 'Black';\n        _innerColorsOptions[1] = 'White';\n        _innerColorsOptions[2] = 'Blue';\n        _innerColorsOptions[3] = 'Green';\n        _innerColorsOptions[4] = 'Pink';\n\n        _outerOptions[0] = '6d';\n        _outerOptions[1] = '10d';\n        _outerOptions[2] = '10r';\n        _outerOptions[3] = '15d';\n        _outerOptions[4] = 'Donut';\n\n        _decorationsOptions[0] = 'Circles';\n        _decorationsOptions[1] = 'Flow';\n        _decorationsOptions[2] = 'Intersection';\n        _decorationsOptions[3] = 'Spheres';\n        _decorationsOptions[4] = 'Squares';\n\n        _isAdmin[msg.sender] = true;\n        _royalties_recipient = payable(msg.sender);\n        _royaltyAmount = 10;\n    } \n\n    function supportsInterface(bytes4 interfaceId)\n        public\n        view\n        virtual\n        override(ERC721)\n        returns (bool)\n    {\n        return\n        ERC721.supportsInterface(interfaceId) ||\n        interfaceId == type(IEIP2981).interfaceId ||\n        super.supportsInterface(interfaceId);\n    }\n\n    modifier adminRequired(){\n        require(_isAdmin[msg.sender], 'Only admins can perfom this action');\n        _;\n    }\n\n    function mint( \n        address to,\n        uint256 innerColor,\n        uint256 outerColor,\n        uint256 decoration\n    ) external adminRequired{\n        _mint(to, _tokenId);\n        _innerColors[_tokenId] = innerColor;\n        _outerColors[_tokenId] = outerColor;\n        _decorations[_tokenId] = decoration;\n        _visuals[_tokenId] = string(abi.encodePacked(\n            Strings.toString(innerColor), \n            Strings.toString(outerColor), \n            Strings.toString(decoration)\n        ));\n        _tokenId ++;\n    }\n\n    function toggleAdmin(address admin)external adminRequired{\n        _isAdmin[admin] = !_isAdmin[admin];\n    }\n\n    function burn(uint256 tokenId) public {\n        address owner = ERC721.ownerOf(tokenId);\n        require(msg.sender == owner, \"Owner only\");\n        _burn(tokenId);\n    }\n\n    function setURI(\n        string calldata uri\n    ) external adminRequired{\n        _uri = uri;\n    }\n\n    function tokenURI(uint256 tokenId) public view virtual override returns (string memory) {\n        require(_exists(tokenId), \"ERC721Metadata: URI query for nonexistent token\");\n        string memory name;\n        string memory description;\n        string memory image;\n        string memory animation;\n        string memory attributes;\n\n        name = 'Constructum';\n        description = 'Constructum is an interactive drop where minters make choices to customize their NFT. There are 125 possible outcomes, but only 55 will ever come to life. Artwork by Simply Anders. Custom website and smart contract by Smartcontrart.';\n        attributes = string(abi.encodePacked(\n            '{\"trait_type\": \"Color\", \"value\": \"',\n            _innerColorsOptions[_innerColors[tokenId]],\n            '\"},{\"trait_type\": \"Outer Shell\", \"value\": \"',\n            _outerOptions[_outerColors[tokenId]],\n            '\"},{\"trait_type\": \"Decoration\", \"value\": \"',\n            _decorationsOptions[_decorations[tokenId]],\n            '\"}'));\n        image = string(abi.encodePacked(_uri, \"/images/\", _visuals[tokenId], \".jpg\"));\n        animation = string(abi.encodePacked(_uri, \"/animations/\", _visuals[tokenId], \".mp4\"));\n        bytes memory byteString = abi.encodePacked(\n            abi.encodePacked(_uriComponents[0], name),\n            abi.encodePacked(_uriComponents[1], description),\n            abi.encodePacked(_uriComponents[2], image),\n            abi.encodePacked(_uriComponents[3], image),\n            abi.encodePacked(_uriComponents[4], animation),\n            abi.encodePacked(_uriComponents[5], animation),\n            abi.encodePacked(_uriComponents[6], attributes),\n            abi.encodePacked(_uriComponents[7])\n        );\n        return string(byteString);\n    }\n\n    function setApprovalForAll(address operator, bool approved) public override onlyAllowedOperatorApproval(operator) {\n        super.setApprovalForAll(operator, approved);\n    }\n\n    function approve(address operator, uint256 tokenId) public override onlyAllowedOperatorApproval(operator) {\n        super.approve(operator, tokenId);\n    }\n\n    function transferFrom(address from, address to, uint256 tokenId) public override onlyAllowedOperator(from) {\n        super.transferFrom(from, to, tokenId);\n    }\n\n    function safeTransferFrom(address from, address to, uint256 tokenId) public override onlyAllowedOperator(from) {\n        super.safeTransferFrom(from, to, tokenId);\n    }\n\n    function safeTransferFrom(address from, address to, uint256 tokenId, bytes memory data)\n        public\n        override\n        onlyAllowedOperator(from)\n    {\n        super.safeTransferFrom(from, to, tokenId, data);\n    }\n\n    function setRoyalties(address payable _recipient, uint256 _royaltyPerCent) external adminRequired {\n        _royalties_recipient = _recipient;\n        _royaltyAmount = _royaltyPerCent;\n    }\n\n    function royaltyInfo(uint256 salePrice) external view returns (address, uint256) {\n        if(_royalties_recipient != address(0)){\n            return (_royalties_recipient, (salePrice * _royaltyAmount) / 100 );\n        }\n        return (address(0), 0);\n    }\n\n    function withdraw(address recipient) external adminRequired {\n        payable(recipient).transfer(address(this).balance);\n    }\n\n}",
  "sourcePath": "/Users/bct/Documents/Dev/NFT_dev/Hexcone/contracts/Constructum.sol",
  "compiler": {
    "name": "solc",
    "version": "0.8.17+commit.8df45f5f.Emscripten.clang"
  },
  "schemaVersion": "3.4.4",
  "updatedAt": "2023-02-07T19:37:54.483Z",
  "devdoc": {
    "errors": {
      "OperatorNotAllowed(address)": [
        {
          "details": "Emitted when an operator is not allowed."
        }
      ]
    },
    "kind": "dev",
    "methods": {
      "balanceOf(address)": {
        "details": "See {IERC721-balanceOf}."
      },
      "getApproved(uint256)": {
        "details": "See {IERC721-getApproved}."
      },
      "isApprovedForAll(address,address)": {
        "details": "See {IERC721-isApprovedForAll}."
      },
      "name()": {
        "details": "See {IERC721Metadata-name}."
      },
      "ownerOf(uint256)": {
        "details": "See {IERC721-ownerOf}."
      },
      "safeTransferFrom(address,address,uint256)": {
        "details": "See {IERC721-safeTransferFrom}."
      },
      "safeTransferFrom(address,address,uint256,bytes)": {
        "details": "See {IERC721-safeTransferFrom}."
      },
      "setApprovalForAll(address,bool)": {
        "details": "See {IERC721-setApprovalForAll}."
      },
      "supportsInterface(bytes4)": {
        "details": "See {IERC165-supportsInterface}."
      },
      "symbol()": {
        "details": "See {IERC721Metadata-symbol}."
      },
      "tokenURI(uint256)": {
        "details": "See {IERC721Metadata-tokenURI}."
      },
      "transferFrom(address,address,uint256)": {
        "details": "See {IERC721-transferFrom}."
      }
    },
    "version": 1
  },
  "userdoc": {
    "kind": "user",
    "methods": {},
    "version": 1
  }
}