{
  "contractName": "ConstructumMint",
  "abi": [
    {
      "inputs": [],
      "stateMutability": "nonpayable",
      "type": "constructor"
    },
    {
      "inputs": [],
      "name": "_ALMintOpened",
      "outputs": [
        {
          "internalType": "bool",
          "name": "",
          "type": "bool"
        }
      ],
      "stateMutability": "view",
      "type": "function"
    },
    {
      "inputs": [
        {
          "internalType": "address",
          "name": "",
          "type": "address"
        }
      ],
      "name": "_ALTokensMinted",
      "outputs": [
        {
          "internalType": "uint256",
          "name": "",
          "type": "uint256"
        }
      ],
      "stateMutability": "view",
      "type": "function"
    },
    {
      "inputs": [],
      "name": "_constructumAddress",
      "outputs": [
        {
          "internalType": "address",
          "name": "",
          "type": "address"
        }
      ],
      "stateMutability": "view",
      "type": "function"
    },
    {
      "inputs": [
        {
          "internalType": "address",
          "name": "",
          "type": "address"
        }
      ],
      "name": "_isAdmin",
      "outputs": [
        {
          "internalType": "bool",
          "name": "",
          "type": "bool"
        }
      ],
      "stateMutability": "view",
      "type": "function"
    },
    {
      "inputs": [],
      "name": "_limitPublicMintPerWallet",
      "outputs": [
        {
          "internalType": "uint256",
          "name": "",
          "type": "uint256"
        }
      ],
      "stateMutability": "view",
      "type": "function"
    },
    {
      "inputs": [],
      "name": "_maxSupply",
      "outputs": [
        {
          "internalType": "uint256",
          "name": "",
          "type": "uint256"
        }
      ],
      "stateMutability": "view",
      "type": "function"
    },
    {
      "inputs": [],
      "name": "_price",
      "outputs": [
        {
          "internalType": "uint256",
          "name": "",
          "type": "uint256"
        }
      ],
      "stateMutability": "view",
      "type": "function"
    },
    {
      "inputs": [],
      "name": "_publicMintOpened",
      "outputs": [
        {
          "internalType": "bool",
          "name": "",
          "type": "bool"
        }
      ],
      "stateMutability": "view",
      "type": "function"
    },
    {
      "inputs": [
        {
          "internalType": "address",
          "name": "",
          "type": "address"
        }
      ],
      "name": "_publicTokenMinted",
      "outputs": [
        {
          "internalType": "uint256",
          "name": "",
          "type": "uint256"
        }
      ],
      "stateMutability": "view",
      "type": "function"
    },
    {
      "inputs": [
        {
          "internalType": "address",
          "name": "",
          "type": "address"
        }
      ],
      "name": "_reserveTokenMinted",
      "outputs": [
        {
          "internalType": "bool",
          "name": "",
          "type": "bool"
        }
      ],
      "stateMutability": "view",
      "type": "function"
    },
    {
      "inputs": [],
      "name": "_reservedMints",
      "outputs": [
        {
          "internalType": "uint256",
          "name": "",
          "type": "uint256"
        }
      ],
      "stateMutability": "view",
      "type": "function"
    },
    {
      "inputs": [],
      "name": "_signer",
      "outputs": [
        {
          "internalType": "address",
          "name": "",
          "type": "address"
        }
      ],
      "stateMutability": "view",
      "type": "function"
    },
    {
      "inputs": [],
      "name": "_supply",
      "outputs": [
        {
          "internalType": "uint256",
          "name": "",
          "type": "uint256"
        }
      ],
      "stateMutability": "view",
      "type": "function"
    },
    {
      "inputs": [
        {
          "internalType": "address",
          "name": "newAdmin",
          "type": "address"
        }
      ],
      "name": "toggleAdmin",
      "outputs": [],
      "stateMutability": "nonpayable",
      "type": "function"
    },
    {
      "inputs": [
        {
          "internalType": "address",
          "name": "recipient",
          "type": "address"
        }
      ],
      "name": "setRecipient",
      "outputs": [],
      "stateMutability": "nonpayable",
      "type": "function"
    },
    {
      "inputs": [
        {
          "internalType": "address",
          "name": "signer",
          "type": "address"
        }
      ],
      "name": "setSigner",
      "outputs": [],
      "stateMutability": "nonpayable",
      "type": "function"
    },
    {
      "inputs": [
        {
          "internalType": "uint256",
          "name": "price",
          "type": "uint256"
        },
        {
          "internalType": "uint256",
          "name": "maxSupply",
          "type": "uint256"
        },
        {
          "internalType": "uint256",
          "name": "reservedMints",
          "type": "uint256"
        }
      ],
      "name": "configDrop",
      "outputs": [],
      "stateMutability": "nonpayable",
      "type": "function"
    },
    {
      "inputs": [
        {
          "internalType": "uint256",
          "name": "limitPerWallet",
          "type": "uint256"
        }
      ],
      "name": "setLimitPerWallet",
      "outputs": [],
      "stateMutability": "nonpayable",
      "type": "function"
    },
    {
      "inputs": [
        {
          "internalType": "address",
          "name": "constructumAddress",
          "type": "address"
        }
      ],
      "name": "setConstructumAddress",
      "outputs": [],
      "stateMutability": "nonpayable",
      "type": "function"
    },
    {
      "inputs": [],
      "name": "toggleMintOpened",
      "outputs": [],
      "stateMutability": "nonpayable",
      "type": "function"
    },
    {
      "inputs": [],
      "name": "toggleALMintOpened",
      "outputs": [],
      "stateMutability": "nonpayable",
      "type": "function"
    },
    {
      "inputs": [
        {
          "internalType": "uint8",
          "name": "v",
          "type": "uint8"
        },
        {
          "internalType": "bytes32",
          "name": "r",
          "type": "bytes32"
        },
        {
          "internalType": "bytes32",
          "name": "s",
          "type": "bytes32"
        },
        {
          "internalType": "uint256",
          "name": "maxQuantity",
          "type": "uint256"
        },
        {
          "internalType": "bool",
          "name": "isReserveMint",
          "type": "bool"
        },
        {
          "internalType": "uint256",
          "name": "innerColor",
          "type": "uint256"
        },
        {
          "internalType": "uint256",
          "name": "outerColor",
          "type": "uint256"
        },
        {
          "internalType": "uint256",
          "name": "decoration",
          "type": "uint256"
        }
      ],
      "name": "ALMint",
      "outputs": [],
      "stateMutability": "payable",
      "type": "function"
    },
    {
      "inputs": [
        {
          "internalType": "uint256",
          "name": "innerColor",
          "type": "uint256"
        },
        {
          "internalType": "uint256",
          "name": "outerColor",
          "type": "uint256"
        },
        {
          "internalType": "uint256",
          "name": "decoration",
          "type": "uint256"
        }
      ],
      "name": "mint",
      "outputs": [],
      "stateMutability": "payable",
      "type": "function"
    }
  ],
  "bytecode": "0x608060405234801561001057600080fd5b506001600b60003373ffffffffffffffffffffffffffffffffffffffff1673ffffffffffffffffffffffffffffffffffffffff16815260200190815260200160002060006101000a81548160ff021916908315150217905550603760018190555067011c37937e08000060008190555060036002819055506001600481905550611c128061009f6000396000f3fe6080604052600436106101405760003560e01c80637e51b70b116100b6578063d3b861411161006f578063d3b8614114610408578063d49b3ba514610431578063dccee69b1461045c578063e7d54c7c14610473578063e9e43f1f146104b0578063ef3ef4e5146104ed57610140565b80637e51b70b146103055780638c5835db14610321578063acb4f9411461035e578063b9c648e214610389578063ca29e8c8146103b2578063cce21daf146103dd57610140565b806322f4596f1161010857806322f4596f1461020b578063235b6ea1146102365780633bbed4a0146102615780633c42238d1461028a57806363c766b9146102b35780636c19e783146102dc57610140565b806302acc94b146101455780630a20fea71461016157806315945790146101785780631a13ab77146101a35780631d0a281c146101ce575b600080fd5b61015f600480360381019061015a91906112df565b610518565b005b34801561016d57600080fd5b506101766107ef565b005b34801561018457600080fd5b5061018d6108a7565b60405161019a9190611341565b60405180910390f35b3480156101af57600080fd5b506101b86108ad565b6040516101c59190611341565b60405180910390f35b3480156101da57600080fd5b506101f560048036038101906101f091906113ba565b6108b3565b6040516102029190611402565b60405180910390f35b34801561021757600080fd5b506102206108d3565b60405161022d9190611341565b60405180910390f35b34801561024257600080fd5b5061024b6108d9565b6040516102589190611341565b60405180910390f35b34801561026d57600080fd5b50610288600480360381019061028391906113ba565b6108df565b005b34801561029657600080fd5b506102b160048036038101906102ac91906112df565b610979565b005b3480156102bf57600080fd5b506102da60048036038101906102d5919061141d565b6109e9565b005b3480156102e857600080fd5b5061030360048036038101906102fe91906113ba565b610a49565b005b61031f600480360381019061031a91906114e5565b610b19565b005b34801561032d57600080fd5b50610348600480360381019061034391906113ba565b610e4f565b6040516103559190611341565b60405180910390f35b34801561036a57600080fd5b50610373610e67565b6040516103809190611402565b60405180910390f35b34801561039557600080fd5b506103b060048036038101906103ab91906113ba565b610e7a565b005b3480156103be57600080fd5b506103c7610f14565b6040516103d491906115aa565b60405180910390f35b3480156103e957600080fd5b506103f2610f3a565b6040516103ff91906115aa565b60405180910390f35b34801561041457600080fd5b5061042f600480360381019061042a91906113ba565b610f60565b005b34801561043d57600080fd5b5061044661105d565b6040516104539190611341565b60405180910390f35b34801561046857600080fd5b50610471611063565b005b34801561047f57600080fd5b5061049a600480360381019061049591906113ba565b6110e5565b6040516104a79190611341565b60405180910390f35b3480156104bc57600080fd5b506104d760048036038101906104d291906113ba565b6110fd565b6040516104e49190611402565b60405180910390f35b3480156104f957600080fd5b5061050261111d565b60405161050f9190611402565b60405180910390f35b600560019054906101000a900460ff16610567576040517f08c379a000000000000000000000000000000000000000000000000000000000815260040161055e90611622565b60405180910390fd5b6000543410156105ac576040517f08c379a00000000000000000000000000000000000000000000000000000000081526004016105a39061168e565b60405180910390fd5b600454600a60003373ffffffffffffffffffffffffffffffffffffffff1673ffffffffffffffffffffffffffffffffffffffff16815260200190815260200160002054106105f957600080fd5b60025460015461060991906116dd565b6003541061064c576040517f08c379a00000000000000000000000000000000000000000000000000000000081526004016106439061175d565b60405180910390fd5b6000600760009054906101000a900473ffffffffffffffffffffffffffffffffffffffff1673ffffffffffffffffffffffffffffffffffffffff166108fc6000549081150290604051600060405180830381858888f193505050509050806106e9576040517f08c379a00000000000000000000000000000000000000000000000000000000081526004016106e0906117c9565b60405180910390fd5b600360008154809291906106fc906117e9565b9190505550600a60003373ffffffffffffffffffffffffffffffffffffffff1673ffffffffffffffffffffffffffffffffffffffff1681526020019081526020016000206000815480929190610751906117e9565b9190505550600560029054906101000a900473ffffffffffffffffffffffffffffffffffffffff1673ffffffffffffffffffffffffffffffffffffffff1663a647e8ec338686866040518563ffffffff1660e01b81526004016107b79493929190611831565b600060405180830381600087803b1580156107d157600080fd5b505af11580156107e5573d6000803e3d6000fd5b5050505050505050565b600b60003373ffffffffffffffffffffffffffffffffffffffff1673ffffffffffffffffffffffffffffffffffffffff16815260200190815260200160002060009054906101000a900460ff1661087b576040517f08c379a0000000000000000000000000000000000000000000000000000000008152600401610872906118c2565b60405180910390fd5b600560009054906101000a900460ff1615600560006101000a81548160ff021916908315150217905550565b60035481565b60045481565b60096020528060005260406000206000915054906101000a900460ff1681565b60015481565b60005481565b600b60003373ffffffffffffffffffffffffffffffffffffffff1673ffffffffffffffffffffffffffffffffffffffff16815260200190815260200160002060009054906101000a900460ff1661093557600080fd5b80600760006101000a81548173ffffffffffffffffffffffffffffffffffffffff021916908373ffffffffffffffffffffffffffffffffffffffff16021790555050565b600b60003373ffffffffffffffffffffffffffffffffffffffff1673ffffffffffffffffffffffffffffffffffffffff16815260200190815260200160002060009054906101000a900460ff166109cf57600080fd5b826000819055508160018190555080600281905550505050565b600b60003373ffffffffffffffffffffffffffffffffffffffff1673ffffffffffffffffffffffffffffffffffffffff16815260200190815260200160002060009054906101000a900460ff16610a3f57600080fd5b8060048190555050565b600b60003373ffffffffffffffffffffffffffffffffffffffff1673ffffffffffffffffffffffffffffffffffffffff16815260200190815260200160002060009054906101000a900460ff16610ad5576040517f08c379a0000000000000000000000000000000000000000000000000000000008152600401610acc9061192e565b60405180910390fd5b80600660006101000a81548173ffffffffffffffffffffffffffffffffffffffff021916908373ffffffffffffffffffffffffffffffffffffffff16021790555050565b610b2685858a8a8a611130565b610b65576040517f08c379a0000000000000000000000000000000000000000000000000000000008152600401610b5c9061199a565b60405180910390fd5b8315610c0e5760015460035410610bb1576040517f08c379a0000000000000000000000000000000000000000000000000000000008152600401610ba89061175d565b60405180910390fd5b6001600960003373ffffffffffffffffffffffffffffffffffffffff1673ffffffffffffffffffffffffffffffffffffffff16815260200190815260200160002060006101000a81548160ff021916908315150217905550610d9a565b600254600154610c1e91906116dd565b60035410610c61576040517f08c379a0000000000000000000000000000000000000000000000000000000008152600401610c589061175d565b60405180910390fd5b600054341015610ca6576040517f08c379a0000000000000000000000000000000000000000000000000000000008152600401610c9d9061168e565b60405180910390fd5b600860003373ffffffffffffffffffffffffffffffffffffffff1673ffffffffffffffffffffffffffffffffffffffff1681526020019081526020016000206000815480929190610cf6906117e9565b91905055506000600760009054906101000a900473ffffffffffffffffffffffffffffffffffffffff1673ffffffffffffffffffffffffffffffffffffffff166108fc6000549081150290604051600060405180830381858888f19350505050905080610d98576040517f08c379a0000000000000000000000000000000000000000000000000000000008152600401610d8f906117c9565b60405180910390fd5b505b60036000815480929190610dad906117e9565b9190505550600560029054906101000a900473ffffffffffffffffffffffffffffffffffffffff1673ffffffffffffffffffffffffffffffffffffffff1663a647e8ec338585856040518563ffffffff1660e01b8152600401610e139493929190611831565b600060405180830381600087803b158015610e2d57600080fd5b505af1158015610e41573d6000803e3d6000fd5b505050505050505050505050565b600a6020528060005260406000206000915090505481565b600560019054906101000a900460ff1681565b600b60003373ffffffffffffffffffffffffffffffffffffffff1673ffffffffffffffffffffffffffffffffffffffff16815260200190815260200160002060009054906101000a900460ff16610ed057600080fd5b80600560026101000a81548173ffffffffffffffffffffffffffffffffffffffff021916908373ffffffffffffffffffffffffffffffffffffffff16021790555050565b600660009054906101000a900473ffffffffffffffffffffffffffffffffffffffff1681565b600560029054906101000a900473ffffffffffffffffffffffffffffffffffffffff1681565b600b60003373ffffffffffffffffffffffffffffffffffffffff1673ffffffffffffffffffffffffffffffffffffffff16815260200190815260200160002060009054906101000a900460ff16610fb657600080fd5b600b60008273ffffffffffffffffffffffffffffffffffffffff1673ffffffffffffffffffffffffffffffffffffffff16815260200190815260200160002060009054906101000a900460ff1615600b60008373ffffffffffffffffffffffffffffffffffffffff1673ffffffffffffffffffffffffffffffffffffffff16815260200190815260200160002060006101000a81548160ff02191690831515021790555050565b60025481565b600b60003373ffffffffffffffffffffffffffffffffffffffff1673ffffffffffffffffffffffffffffffffffffffff16815260200190815260200160002060009054906101000a900460ff166110b957600080fd5b600560019054906101000a900460ff1615600560016101000a81548160ff021916908315150217905550565b60086020528060005260406000206000915090505481565b600b6020528060005260406000206000915054906101000a900460ff1681565b600560009054906101000a900460ff1681565b6000600133600560029054906101000a900473ffffffffffffffffffffffffffffffffffffffff16600560009054906101000a900460ff1689600860003373ffffffffffffffffffffffffffffffffffffffff1673ffffffffffffffffffffffffffffffffffffffff16815260200190815260200160002054108a8a6040516020016111c196959493929190611a6b565b604051602081830303815290604052805190602001206040516020016111e79190611b53565b604051602081830303815290604052805190602001208585856040516000815260200160405260405161121d9493929190611b97565b6020604051602081039080840390855afa15801561123f573d6000803e3d6000fd5b5050506020604051035173ffffffffffffffffffffffffffffffffffffffff16600660009054906101000a900473ffffffffffffffffffffffffffffffffffffffff1673ffffffffffffffffffffffffffffffffffffffff1614905095945050505050565b600080fd5b6000819050919050565b6112bc816112a9565b81146112c757600080fd5b50565b6000813590506112d9816112b3565b92915050565b6000806000606084860312156112f8576112f76112a4565b5b6000611306868287016112ca565b9350506020611317868287016112ca565b9250506040611328868287016112ca565b9150509250925092565b61133b816112a9565b82525050565b60006020820190506113566000830184611332565b92915050565b600073ffffffffffffffffffffffffffffffffffffffff82169050919050565b60006113878261135c565b9050919050565b6113978161137c565b81146113a257600080fd5b50565b6000813590506113b48161138e565b92915050565b6000602082840312156113d0576113cf6112a4565b5b60006113de848285016113a5565b91505092915050565b60008115159050919050565b6113fc816113e7565b82525050565b600060208201905061141760008301846113f3565b92915050565b600060208284031215611433576114326112a4565b5b6000611441848285016112ca565b91505092915050565b600060ff82169050919050565b6114608161144a565b811461146b57600080fd5b50565b60008135905061147d81611457565b92915050565b6000819050919050565b61149681611483565b81146114a157600080fd5b50565b6000813590506114b38161148d565b92915050565b6114c2816113e7565b81146114cd57600080fd5b50565b6000813590506114df816114b9565b92915050565b600080600080600080600080610100898b031215611506576115056112a4565b5b60006115148b828c0161146e565b98505060206115258b828c016114a4565b97505060406115368b828c016114a4565b96505060606115478b828c016112ca565b95505060806115588b828c016114d0565b94505060a06115698b828c016112ca565b93505060c061157a8b828c016112ca565b92505060e061158b8b828c016112ca565b9150509295985092959890939650565b6115a48161137c565b82525050565b60006020820190506115bf600083018461159b565b92915050565b600082825260208201905092915050565b7f4d696e7420636c6f736564000000000000000000000000000000000000000000600082015250565b600061160c600b836115c5565b9150611617826115d6565b602082019050919050565b6000602082019050818103600083015261163b816115ff565b9050919050565b7f4e6f7420656e6f7567682066756e647300000000000000000000000000000000600082015250565b60006116786010836115c5565b915061168382611642565b602082019050919050565b600060208201905081810360008301526116a78161166b565b9050919050565b7f4e487b7100000000000000000000000000000000000000000000000000000000600052601160045260246000fd5b60006116e8826112a9565b91506116f3836112a9565b925082820390508181111561170b5761170a6116ae565b5b92915050565b7f4d617820737570706c7920726561636865640000000000000000000000000000600082015250565b60006117476012836115c5565b915061175282611711565b602082019050919050565b600060208201905081810360008301526117768161173a565b9050919050565b7f46756e647320636f756c64206e6f74207472616e736665720000000000000000600082015250565b60006117b36018836115c5565b91506117be8261177d565b602082019050919050565b600060208201905081810360008301526117e2816117a6565b9050919050565b60006117f4826112a9565b91507fffffffffffffffffffffffffffffffffffffffffffffffffffffffffffffffff8203611826576118256116ae565b5b600182019050919050565b6000608082019050611846600083018761159b565b6118536020830186611332565b6118606040830185611332565b61186d6060830184611332565b95945050505050565b7f4f6e6c792041646d696e732063616e20746f67676c6520414c204d696e740000600082015250565b60006118ac601e836115c5565b91506118b782611876565b602082019050919050565b600060208201905081810360008301526118db8161189f565b9050919050565b7f4f6e6c792041646d696e732063616e20736574207369676e6572000000000000600082015250565b6000611918601a836115c5565b9150611923826118e2565b602082019050919050565b600060208201905081810360008301526119478161190b565b9050919050565b7f4d696e74206e6f7420616c6c6f77656400000000000000000000000000000000600082015250565b60006119846010836115c5565b915061198f8261194e565b602082019050919050565b600060208201905081810360008301526119b381611977565b9050919050565b60008160601b9050919050565b60006119d2826119ba565b9050919050565b60006119e4826119c7565b9050919050565b6119fc6119f78261137c565b6119d9565b82525050565b60008160f81b9050919050565b6000611a1a82611a02565b9050919050565b6000611a2c82611a0f565b9050919050565b611a44611a3f826113e7565b611a21565b82525050565b6000819050919050565b611a65611a60826112a9565b611a4a565b82525050565b6000611a7782896119eb565b601482019150611a8782886119eb565b601482019150611a978287611a33565b600182019150611aa78286611a33565b600182019150611ab78285611a54565b602082019150611ac78284611a33565b600182019150819050979650505050505050565b600081905092915050565b7f19457468657265756d205369676e6564204d6573736167653a0a333200000000600082015250565b6000611b1c601c83611adb565b9150611b2782611ae6565b601c82019050919050565b6000819050919050565b611b4d611b4882611483565b611b32565b82525050565b6000611b5e82611b0f565b9150611b6a8284611b3c565b60208201915081905092915050565b611b8281611483565b82525050565b611b918161144a565b82525050565b6000608082019050611bac6000830187611b79565b611bb96020830186611b88565b611bc66040830185611b79565b611bd36060830184611b79565b9594505050505056fea26469706673582212202917429c37f9a3444f9865f5b9b803457d01f84b15fb1835fa8b80097bb9871764736f6c63430008110033",
  "immutableReferences": {},
  "source": "// SPDX-License-Identifier: MIT\n\npragma solidity >= 0.8.17;\n\nimport \"./Constructum.sol\";\nimport \"@openzeppelin/contracts/token/ERC721/IERC721.sol\";\nimport \"@openzeppelin/contracts/token/ERC20/IERC20.sol\";\n\ncontract ConstructumMint {\n\n    uint256 public _price;\n    uint256 public _maxSupply;\n    uint256 public _reservedMints;\n    uint256 public _supply;\n    uint256 public _limitPublicMintPerWallet;\n\n    bool public _ALMintOpened;\n    bool public _publicMintOpened;\n\n    address public _constructumAddress;\n    address public _signer;\n    address private _recipient;\n\n    mapping(address => uint256) public _ALTokensMinted;\n    mapping(address => bool) public _reserveTokenMinted;\n    mapping(address => uint256) public _publicTokenMinted;\n    mapping (address => bool) public _isAdmin;\n\n    constructor(){\n        _isAdmin[msg.sender] = true;\n        _maxSupply = 55;\n        _price = 0.08 ether;\n        _reservedMints = 3;\n        _limitPublicMintPerWallet = 1;\n    }\n\n    function toggleAdmin(address newAdmin)external{\n        require(_isAdmin[msg.sender]);\n        _isAdmin[newAdmin] = !_isAdmin[newAdmin];\n    }\n\n    function setRecipient(address recipient) external {\n        require(_isAdmin[msg.sender]);\n        _recipient = recipient;\n    }\n\n    function setSigner (address signer) external{\n        require(_isAdmin[msg.sender], \"Only Admins can set signer\");\n        _signer = signer;\n    }\n\n    function configDrop(\n        uint256 price,\n        uint256 maxSupply,\n        uint256 reservedMints\n    ) external {\n        require(_isAdmin[msg.sender]);\n        _price = price;\n        _maxSupply = maxSupply;\n        _reservedMints = reservedMints;\n    }\n\n    function setLimitPerWallet(uint256 limitPerWallet)external{\n        require(_isAdmin[msg.sender]);\n        _limitPublicMintPerWallet = limitPerWallet;\n    }\n\n    function setConstructumAddress(address constructumAddress) external{\n        require(_isAdmin[msg.sender]);\n        _constructumAddress = constructumAddress;\n    }\n\n    function toggleMintOpened()external{\n        require(_isAdmin[msg.sender]);\n        _publicMintOpened = !_publicMintOpened;\n    }\n\n    function toggleALMintOpened() external{\n        require(_isAdmin[msg.sender], \"Only Admins can toggle AL Mint\");\n        _ALMintOpened = !_ALMintOpened;\n    }\n\n    function mintAllowed(uint256 maxQuantity, bool isReserveMint, uint8 v, bytes32 r, bytes32 s)internal view returns(bool){\n        return(\n            _signer ==\n                ecrecover(\n                    keccak256(\n                        abi.encodePacked(\n                            \"\\x19Ethereum Signed Message:\\n32\",\n                            keccak256(\n                                abi.encodePacked(\n                                    msg.sender,\n                                    _constructumAddress,\n                                    _ALMintOpened,\n                                    _ALTokensMinted[msg.sender] < maxQuantity,\n                                    maxQuantity,\n                                    isReserveMint\n                                )\n                            )\n                        )\n                    )\n                , v, r, s)\n        );\n    }\n\n    function ALMint(\n        uint8 v,\n        bytes32 r, \n        bytes32 s,\n        uint256 maxQuantity,\n        bool isReserveMint,\n        uint256 innerColor,\n        uint256 outerColor,\n        uint256 decoration\n    ) external payable{\n        require(mintAllowed(maxQuantity, isReserveMint, v, r, s), \"Mint not allowed\");\n        if(isReserveMint){\n            require(_supply < (_maxSupply),\"Max supply reached\");\n            _reserveTokenMinted[msg.sender] = true;\n        }else{\n            require(_supply < (_maxSupply - _reservedMints),\"Max supply reached\");\n            require(msg.value >= _price, \"Not enough funds\");\n            _ALTokensMinted[msg.sender] ++;\n            bool success = payable(_recipient).send(_price);\n            require(success, \"Funds could not transfer\");\n        }\n        _supply ++;\n         Constructum(_constructumAddress).mint(\n            msg.sender, \n            innerColor,\n            outerColor,\n            decoration\n        );\n    }\n\n\n    function mint(\n        uint256 innerColor,\n        uint256 outerColor,\n        uint256 decoration\n    ) external payable{\n        require(_publicMintOpened, \"Mint closed\");\n        require(msg.value >= _price, \"Not enough funds\");\n        require( _publicTokenMinted[msg.sender] < _limitPublicMintPerWallet);\n        require(_supply < (_maxSupply - _reservedMints),\"Max supply reached\");\n        bool success = payable(_recipient).send(_price);\n        require(success, \"Funds could not transfer\");\n        _supply ++;\n        _publicTokenMinted[msg.sender] ++;\n        Constructum(_constructumAddress).mint(\n            msg.sender, \n            innerColor,\n            outerColor,\n            decoration\n        );\n    }\n\n}",
  "sourcePath": "/Users/bct/Documents/Dev/NFT_dev/Hexcone/contracts/ConstructumMint.sol",
  "compiler": {
    "name": "solc",
    "version": "0.8.17+commit.8df45f5f.Emscripten.clang"
  },
  "schemaVersion": "3.4.4",
  "updatedAt": "2023-02-07T19:37:54.506Z",
  "devdoc": {
    "kind": "dev",
    "methods": {},
    "version": 1
  },
  "userdoc": {
    "kind": "user",
    "methods": {},
    "version": 1
  }
}